{
  "contractName": "CoinFlip",
  "abi": [
    {
      "inputs": [],
      "payable": false,
      "stateMutability": "nonpayable",
      "type": "constructor"
    },
    {
      "constant": true,
      "inputs": [],
      "name": "expiration",
      "outputs": [
        {
          "internalType": "uint256",
          "name": "",
          "type": "uint256"
        }
      ],
      "payable": false,
      "stateMutability": "view",
      "type": "function"
    },
    {
      "constant": true,
      "inputs": [],
      "name": "player1",
      "outputs": [
        {
          "internalType": "address payable",
          "name": "",
          "type": "address"
        }
      ],
      "payable": false,
      "stateMutability": "view",
      "type": "function"
    },
    {
      "constant": true,
      "inputs": [],
      "name": "player1Commitment",
      "outputs": [
        {
          "internalType": "bytes32",
          "name": "",
          "type": "bytes32"
        }
      ],
      "payable": false,
      "stateMutability": "view",
      "type": "function"
    },
    {
      "constant": true,
      "inputs": [],
      "name": "player2",
      "outputs": [
        {
          "internalType": "address payable",
          "name": "",
          "type": "address"
        }
      ],
      "payable": false,
      "stateMutability": "view",
      "type": "function"
    },
    {
      "constant": true,
      "inputs": [],
      "name": "player2Choice",
      "outputs": [
        {
          "internalType": "bool",
          "name": "",
          "type": "bool"
        }
      ],
      "payable": false,
      "stateMutability": "view",
      "type": "function"
    },
    {
      "constant": true,
      "inputs": [],
      "name": "pot",
      "outputs": [
        {
          "internalType": "uint256",
          "name": "",
          "type": "uint256"
        }
      ],
      "payable": false,
      "stateMutability": "view",
      "type": "function"
    },
    {
      "constant": true,
      "inputs": [],
      "name": "winner",
      "outputs": [
        {
          "internalType": "address payable",
          "name": "",
          "type": "address"
        }
      ],
      "payable": false,
      "stateMutability": "view",
      "type": "function"
    },
    {
      "constant": true,
      "inputs": [],
      "name": "getPot",
      "outputs": [
        {
          "internalType": "uint256",
          "name": "",
          "type": "uint256"
        }
      ],
      "payable": false,
      "stateMutability": "view",
      "type": "function"
    },
    {
      "constant": true,
      "inputs": [],
      "name": "getWinner",
      "outputs": [
        {
          "internalType": "address payable",
          "name": "",
          "type": "address"
        }
      ],
      "payable": false,
      "stateMutability": "view",
      "type": "function"
    },
    {
      "constant": true,
      "inputs": [],
      "name": "getPlayer1",
      "outputs": [
        {
          "internalType": "address payable",
          "name": "",
          "type": "address"
        }
      ],
      "payable": false,
      "stateMutability": "view",
      "type": "function"
    },
    {
      "constant": true,
      "inputs": [],
      "name": "getPlayer2",
      "outputs": [
        {
          "internalType": "address payable",
          "name": "",
          "type": "address"
        }
      ],
      "payable": false,
      "stateMutability": "view",
      "type": "function"
    },
    {
      "constant": false,
      "inputs": [],
      "name": "reset",
      "outputs": [],
      "payable": false,
      "stateMutability": "nonpayable",
      "type": "function"
    },
    {
      "constant": false,
      "inputs": [
        {
          "internalType": "bool",
          "name": "_bet",
          "type": "bool"
        },
        {
          "internalType": "uint256",
          "name": "_nonce",
          "type": "uint256"
        }
      ],
      "name": "flipCoin",
      "outputs": [],
      "payable": true,
      "stateMutability": "payable",
      "type": "function"
    },
    {
      "constant": false,
      "inputs": [
        {
          "internalType": "bool",
          "name": "_bet",
          "type": "bool"
        }
      ],
      "name": "takeBet",
      "outputs": [],
      "payable": true,
      "stateMutability": "payable",
      "type": "function"
    },
    {
      "constant": false,
      "inputs": [
        {
          "internalType": "bool",
          "name": "_choice",
          "type": "bool"
        },
        {
          "internalType": "uint256",
          "name": "_nonce",
          "type": "uint256"
        }
      ],
      "name": "reveal",
      "outputs": [],
      "payable": true,
      "stateMutability": "payable",
      "type": "function"
    },
    {
      "constant": false,
      "inputs": [],
      "name": "cancel",
      "outputs": [],
      "payable": false,
      "stateMutability": "nonpayable",
      "type": "function"
    },
    {
      "constant": false,
      "inputs": [],
      "name": "claimTimeout",
      "outputs": [],
      "payable": false,
      "stateMutability": "nonpayable",
      "type": "function"
    }
  ],
  "bytecode": "0x608060405234801561001057600080fd5b50600a600781905550610ff6806100286000396000f3fe6080604052600436106100fe5760003560e01c80634665096d11610095578063d30895e411610064578063d30895e4146103ca578063d826f88f14610421578063dfbf53ae14610438578063ea8a1af01461048f578063eb13175d146104a6576100fe565b80634665096d146102c65780634ba2363a146102f157806359a5f12d1461031c5780638e7ea5b214610373576100fe565b80631bb6cb47116100d15780631bb6cb47146101da57806338a3fde71461023157806339f3027d14610261578063403c9fa81461029b576100fe565b806301ab2a66146101035780630c9975971461015a5780630ce6e680146101945780630e1da6c3146101c3575b600080fd5b34801561010f57600080fd5b506101186104d1565b604051808273ffffffffffffffffffffffffffffffffffffffff1673ffffffffffffffffffffffffffffffffffffffff16815260200191505060405180910390f35b6101926004803603604081101561017057600080fd5b81019080803515159060200190929190803590602001909291905050506104fa565b005b3480156101a057600080fd5b506101a9610602565b604051808215151515815260200191505060405180910390f35b3480156101cf57600080fd5b506101d8610615565b005b3480156101e657600080fd5b506101ef6106db565b604051808273ffffffffffffffffffffffffffffffffffffffff1673ffffffffffffffffffffffffffffffffffffffff16815260200191505060405180910390f35b61025f6004803603602081101561024757600080fd5b81019080803515159060200190929190505050610705565b005b6102996004803603604081101561027757600080fd5b810190808035151590602001909291908035906020019092919050505061089d565b005b3480156102a757600080fd5b506102b0610c47565b6040518082815260200191505060405180910390f35b3480156102d257600080fd5b506102db610c51565b6040518082815260200191505060405180910390f35b3480156102fd57600080fd5b50610306610c57565b6040518082815260200191505060405180910390f35b34801561032857600080fd5b50610331610c5d565b604051808273ffffffffffffffffffffffffffffffffffffffff1673ffffffffffffffffffffffffffffffffffffffff16815260200191505060405180910390f35b34801561037f57600080fd5b50610388610c83565b604051808273ffffffffffffffffffffffffffffffffffffffff1673ffffffffffffffffffffffffffffffffffffffff16815260200191505060405180910390f35b3480156103d657600080fd5b506103df610cad565b604051808273ffffffffffffffffffffffffffffffffffffffff1673ffffffffffffffffffffffffffffffffffffffff16815260200191505060405180910390f35b34801561042d57600080fd5b50610436610cd2565b005b34801561044457600080fd5b5061044d610d67565b604051808273ffffffffffffffffffffffffffffffffffffffff1673ffffffffffffffffffffffffffffffffffffffff16815260200191505060405180910390f35b34801561049b57600080fd5b506104a4610d8d565b005b3480156104b257600080fd5b506104bb610ed7565b6040518082815260200191505060405180910390f35b60008060009054906101000a900473ffffffffffffffffffffffffffffffffffffffff16905090565b600754341015610572576040517f08c379a00000000000000000000000000000000000000000000000000000000081526004018080602001828103825260198152602001807f4d75737420626574206d696e696d616c6c79203130205765690000000000000081525060200191505060405180910390fd5b336000806101000a81548173ffffffffffffffffffffffffffffffffffffffff021916908373ffffffffffffffffffffffffffffffffffffffff160217905550818160405160200180831515151560f81b81526001018281526020019250505060405160208183030381529060405280519060200120600381905550346006600082825401925050819055505050565b600460009054906101000a900460ff1681565b600554421015610670576040517f08c379a000000000000000000000000000000000000000000000000000000000815260040180806020018281038252602a815260200180610f60602a913960400191505060405180910390fd5b600160009054906101000a900473ffffffffffffffffffffffffffffffffffffffff1673ffffffffffffffffffffffffffffffffffffffff166108fc479081150290604051600060405180830381858888f193505050501580156106d8573d6000803e3d6000fd5b50565b6000600160009054906101000a900473ffffffffffffffffffffffffffffffffffffffff16905090565b600073ffffffffffffffffffffffffffffffffffffffff16600160009054906101000a900473ffffffffffffffffffffffffffffffffffffffff1673ffffffffffffffffffffffffffffffffffffffff16146107ac576040517f08c379a0000000000000000000000000000000000000000000000000000000008152600401808060200182810382526038815260200180610ede6038913960400191505060405180910390fd5b600754341015610824576040517f08c379a00000000000000000000000000000000000000000000000000000000081526004018080602001828103825260198152602001807f4d75737420626574206d696e696d616c6c79203130205765690000000000000081525060200191505060405180910390fd5b33600160006101000a81548173ffffffffffffffffffffffffffffffffffffffff021916908373ffffffffffffffffffffffffffffffffffffffff16021790555080600460006101000a81548160ff02191690831515021790555034600660008282540192505081905550610708420160058190555050565b6005544211806108fb5750600073ffffffffffffffffffffffffffffffffffffffff16600160009054906101000a900473ffffffffffffffffffffffffffffffffffffffff1673ffffffffffffffffffffffffffffffffffffffff16145b15610951576040517f08c379a0000000000000000000000000000000000000000000000000000000008152600401808060200182810382526038815260200180610f8a6038913960400191505060405180910390fd5b600354828260405160200180831515151560f81b81526001018281526020019250505060405160208183030381529060405280519060200120146109f957600160009054906101000a900473ffffffffffffffffffffffffffffffffffffffff1673ffffffffffffffffffffffffffffffffffffffff166108fc479081150290604051600060405180830381858888f193505050501580156109f7573d6000803e3d6000fd5b505b811515600460009054906101000a900460ff1615151415610ae557600160009054906101000a900473ffffffffffffffffffffffffffffffffffffffff16600260006101000a81548173ffffffffffffffffffffffffffffffffffffffff021916908373ffffffffffffffffffffffffffffffffffffffff160217905550600160009054906101000a900473ffffffffffffffffffffffffffffffffffffffff1673ffffffffffffffffffffffffffffffffffffffff166108fc479081150290604051600060405180830381858888f19350505050158015610adf573d6000803e3d6000fd5b50610bb0565b6000809054906101000a900473ffffffffffffffffffffffffffffffffffffffff16600260006101000a81548173ffffffffffffffffffffffffffffffffffffffff021916908373ffffffffffffffffffffffffffffffffffffffff1602179055506000809054906101000a900473ffffffffffffffffffffffffffffffffffffffff1673ffffffffffffffffffffffffffffffffffffffff166108fc479081150290604051600060405180830381858888f19350505050158015610bae573d6000803e3d6000fd5b505b60008060006101000a81548173ffffffffffffffffffffffffffffffffffffffff021916908373ffffffffffffffffffffffffffffffffffffffff1602179055506000600160006101000a81548173ffffffffffffffffffffffffffffffffffffffff021916908373ffffffffffffffffffffffffffffffffffffffff160217905550600060058190555060006006819055505050565b6000600654905090565b60055481565b60065481565b600160009054906101000a900473ffffffffffffffffffffffffffffffffffffffff1681565b6000600260009054906101000a900473ffffffffffffffffffffffffffffffffffffffff16905090565b6000809054906101000a900473ffffffffffffffffffffffffffffffffffffffff1681565b60008060006101000a81548173ffffffffffffffffffffffffffffffffffffffff021916908373ffffffffffffffffffffffffffffffffffffffff1602179055506000600160006101000a81548173ffffffffffffffffffffffffffffffffffffffff021916908373ffffffffffffffffffffffffffffffffffffffff16021790555060006005819055506000600681905550565b600260009054906101000a900473ffffffffffffffffffffffffffffffffffffffff1681565b6000809054906101000a900473ffffffffffffffffffffffffffffffffffffffff1673ffffffffffffffffffffffffffffffffffffffff163373ffffffffffffffffffffffffffffffffffffffff16141580610e385750600073ffffffffffffffffffffffffffffffffffffffff16600160009054906101000a900473ffffffffffffffffffffffffffffffffffffffff1673ffffffffffffffffffffffffffffffffffffffff1614155b15610e8e576040517f08c379a000000000000000000000000000000000000000000000000000000000815260040180806020018281038252604a815260200180610f16604a913960600191505060405180910390fd5b3373ffffffffffffffffffffffffffffffffffffffff166108fc479081150290604051600060405180830381858888f19350505050158015610ed4573d6000803e3d6000fd5b50565b6003548156fe546865726520697320616c7265616479206120506c6179657220322c207761697420666f72206e6578742062657474696e6720726f756e644f6e6c7920506c6179657220312063616e2063616c6c2063616e63656c2066756e6374696f6e206f7220506c6179657220322068617320616c726561647920656e74657265642062657443616e6e6f7420636c61696d20756e74696c2061667465722065787069726174696f6e20706572696f645468652065787069726174696f6e20686173206265656e206578636565646564206f72207468657265206973206e6f20506c617965722032a265627a7a72315820f5fa6b8be0c453760fa3e0db9f81ef479b44e0a125f216eb6c4eef37327f1ce164736f6c63430005100032",
  "source": "pragma solidity ^0.5.0;\n\n\ncontract CoinFlip {\n\taddress payable public player1;\n\taddress payable public player2;\n\taddress payable public winner;\n\n\tbytes32 public player1Commitment;\n\tbool public player2Choice;\n\n\tuint256 public expiration;\n\tuint public pot;\n\tuint minBet;\n\t\n\tconstructor() public {\n\t    minBet = 10 wei;\n\t}\n\t\n\tfunction getPot() public view returns(uint) {\n\t    return pot;\n\t}\n\t\n\tfunction getWinner() public view returns(address payable) {\n\t    return winner;\n\t}\n\t\n\tfunction getPlayer1() public view returns(address payable) {\n\t    return player1;\n\t}\n\t\n\tfunction getPlayer2() public view returns(address payable) {\n\t    return player2;\n\t}\n\t\n\tfunction reset() public {\n\t    player1 = address(0);\n\t\tplayer2 = address(0);\n\t\texpiration = 0;\n\t\tpot = 0;\n\t}\n\n\tfunction flipCoin(bool _bet, uint256 _nonce) public payable {\n\t    // Player 1 must bet at least the minimum bet\n\t    if(msg.value < minBet) {\n\t        revert(\"Must bet minimally 10 Wei\");\n\t    }\n\t\tplayer1 = msg.sender;\n\t\tplayer1Commitment = keccak256(abi.encodePacked(_bet, _nonce));\n\t\tpot += msg.value;\n\t}\n\t\n\tfunction takeBet(bool _bet) public payable {\n\t\t// Only two players can play\n\t\tif(player2 != address(0)) {\n\t\t\trevert(\"There is already a Player 2, wait for next betting round\");\n\t\t}\n\n\t\t// player 2 must bet at least the minimum bet\n\t    if(msg.value < minBet) {\n\t        revert(\"Must bet minimally 10 Wei\");\n\t    }\n\n\t\t// Player 2 is the caller of this function\n\t\tplayer2 = msg.sender;\n\n\t\t// Set player 2 choice to arg passed\n\t\tplayer2Choice = _bet;\n\t\t\n\t\t// Update the pot\n\t\tpot += msg.value;\n\n\t\t// Set expiration timer for player 1 to reveal commitment\n\t\texpiration = now + 30 minutes;\n\t}\n\n\t// Called by player 1 to reveal his earlier bet\n\tfunction reveal(bool _choice, uint256 _nonce) public payable {\n\t\t//require(player2 != address(0));\n\t\tif(now > expiration || player2 == address(0)) {\n\t\t\trevert(\"The expiration has been exceeded or there is no Player 2\");\t\t\t\n\t\t}\n\n\t\t// choice must be the same as his initial commitment\n\t\tif (keccak256(abi.encodePacked(_choice, _nonce)) != player1Commitment) {\n\t\t\t// if player 1 deviates from protocol, he loses his bet amount to player 2\n\t\t\taddress(player2).transfer(address(this).balance);\n\t\t}\n\n\t\tif (player2Choice == _choice) {\n\t\t    winner = player2;\n\t\t\taddress(player2).transfer(address(this).balance);\n\t\t}\n\n\t\telse {\n\t\t    winner = player1;\n\t\t\taddress(player1).transfer(address(this).balance);\n\t\t}\n\t\t\n\t\t// Reset all state variables before new game\n\t\tplayer1 = address(0);\n\t\tplayer2 = address(0);\n\t\texpiration = 0;\n\t\tpot = 0;\n\t\t\n\t}\n\n\t// player 1 can cancel the bet before player 2 calls takeBet\n\tfunction cancel() public {\n\t\tif(msg.sender != player1 || player2 != address(0)) {\n\t\t\trevert(\"Only Player 1 can call cancel function or Player 2 has already entered bet\");\n\t\t}\n\t\t\n\t\t// give player 1 his money back\n\t\taddress(msg.sender).transfer(address(this).balance);\n\t}\n\n\t// player 2 can call timeout on player 1 if player 1 refuses to call reveal()\n\tfunction claimTimeout() public {\n\t\tif(now < expiration) {\n\t\t\trevert(\"Cannot claim until after expiration period\");\n\t\t}\n\n\t\taddress(player2).transfer(address(this).balance);\n\t}\n\n}",
  "sourcePath": "/Users/aidenchia/Desktop/50.037_Ex11/contracts/CoinFlip.sol",
  "compiler": {
    "name": "solc",
    "version": "0.5.16+commit.9c3226ce.Emscripten.clang"
  },
  "schemaVersion": "3.0.23",
  "updatedAt": "2020-04-18T19:50:36.358Z",
  "networkType": "ethereum",
  "devdoc": {
    "methods": {}
  },
  "userdoc": {
    "methods": {}
  }
}