{
  "contractName": "CoinFlip",
  "abi": [
    {
      "inputs": [],
      "payable": false,
      "stateMutability": "nonpayable",
      "type": "constructor"
    },
    {
      "anonymous": false,
      "inputs": [
        {
          "indexed": true,
          "internalType": "address",
          "name": "_owner",
          "type": "address"
        },
        {
          "indexed": true,
          "internalType": "address",
          "name": "_spender",
          "type": "address"
        },
        {
          "indexed": false,
          "internalType": "uint256",
          "name": "_value",
          "type": "uint256"
        }
      ],
      "name": "Approval",
      "type": "event"
    },
    {
      "anonymous": false,
      "inputs": [
        {
          "indexed": true,
          "internalType": "address",
          "name": "_from",
          "type": "address"
        },
        {
          "indexed": true,
          "internalType": "address",
          "name": "_to",
          "type": "address"
        },
        {
          "indexed": false,
          "internalType": "uint256",
          "name": "_value",
          "type": "uint256"
        }
      ],
      "name": "Transfer",
      "type": "event"
    },
    {
      "constant": true,
      "inputs": [
        {
          "internalType": "address",
          "name": "",
          "type": "address"
        },
        {
          "internalType": "address",
          "name": "",
          "type": "address"
        }
      ],
      "name": "allowance",
      "outputs": [
        {
          "internalType": "uint256",
          "name": "",
          "type": "uint256"
        }
      ],
      "payable": false,
      "stateMutability": "view",
      "type": "function"
    },
    {
      "constant": true,
      "inputs": [
        {
          "internalType": "address",
          "name": "",
          "type": "address"
        }
      ],
      "name": "balanceOf",
      "outputs": [
        {
          "internalType": "uint256",
          "name": "",
          "type": "uint256"
        }
      ],
      "payable": false,
      "stateMutability": "view",
      "type": "function"
    },
    {
      "constant": true,
      "inputs": [],
      "name": "expiration",
      "outputs": [
        {
          "internalType": "uint256",
          "name": "",
          "type": "uint256"
        }
      ],
      "payable": false,
      "stateMutability": "view",
      "type": "function"
    },
    {
      "constant": true,
      "inputs": [],
      "name": "name",
      "outputs": [
        {
          "internalType": "string",
          "name": "",
          "type": "string"
        }
      ],
      "payable": false,
      "stateMutability": "view",
      "type": "function"
    },
    {
      "constant": true,
      "inputs": [],
      "name": "player1",
      "outputs": [
        {
          "internalType": "address payable",
          "name": "",
          "type": "address"
        }
      ],
      "payable": false,
      "stateMutability": "view",
      "type": "function"
    },
    {
      "constant": true,
      "inputs": [],
      "name": "player1Commitment",
      "outputs": [
        {
          "internalType": "bytes32",
          "name": "",
          "type": "bytes32"
        }
      ],
      "payable": false,
      "stateMutability": "view",
      "type": "function"
    },
    {
      "constant": true,
      "inputs": [],
      "name": "player2",
      "outputs": [
        {
          "internalType": "address payable",
          "name": "",
          "type": "address"
        }
      ],
      "payable": false,
      "stateMutability": "view",
      "type": "function"
    },
    {
      "constant": true,
      "inputs": [],
      "name": "player2Choice",
      "outputs": [
        {
          "internalType": "bool",
          "name": "",
          "type": "bool"
        }
      ],
      "payable": false,
      "stateMutability": "view",
      "type": "function"
    },
    {
      "constant": true,
      "inputs": [],
      "name": "pot",
      "outputs": [
        {
          "internalType": "uint256",
          "name": "",
          "type": "uint256"
        }
      ],
      "payable": false,
      "stateMutability": "view",
      "type": "function"
    },
    {
      "constant": true,
      "inputs": [],
      "name": "symbol",
      "outputs": [
        {
          "internalType": "string",
          "name": "",
          "type": "string"
        }
      ],
      "payable": false,
      "stateMutability": "view",
      "type": "function"
    },
    {
      "constant": true,
      "inputs": [],
      "name": "totalSupply",
      "outputs": [
        {
          "internalType": "uint256",
          "name": "",
          "type": "uint256"
        }
      ],
      "payable": false,
      "stateMutability": "view",
      "type": "function"
    },
    {
      "constant": true,
      "inputs": [],
      "name": "winner",
      "outputs": [
        {
          "internalType": "address payable",
          "name": "",
          "type": "address"
        }
      ],
      "payable": false,
      "stateMutability": "view",
      "type": "function"
    },
    {
      "constant": false,
      "inputs": [
        {
          "internalType": "address",
          "name": "_to",
          "type": "address"
        },
        {
          "internalType": "uint256",
          "name": "_value",
          "type": "uint256"
        }
      ],
      "name": "transfer",
      "outputs": [
        {
          "internalType": "bool",
          "name": "success",
          "type": "bool"
        }
      ],
      "payable": false,
      "stateMutability": "nonpayable",
      "type": "function"
    },
    {
      "constant": true,
      "inputs": [],
      "name": "getPot",
      "outputs": [
        {
          "internalType": "uint256",
          "name": "",
          "type": "uint256"
        }
      ],
      "payable": false,
      "stateMutability": "view",
      "type": "function"
    },
    {
      "constant": true,
      "inputs": [],
      "name": "getWinner",
      "outputs": [
        {
          "internalType": "address payable",
          "name": "",
          "type": "address"
        }
      ],
      "payable": false,
      "stateMutability": "view",
      "type": "function"
    },
    {
      "constant": true,
      "inputs": [],
      "name": "getPlayer1",
      "outputs": [
        {
          "internalType": "address payable",
          "name": "",
          "type": "address"
        }
      ],
      "payable": false,
      "stateMutability": "view",
      "type": "function"
    },
    {
      "constant": true,
      "inputs": [],
      "name": "getPlayer2",
      "outputs": [
        {
          "internalType": "address payable",
          "name": "",
          "type": "address"
        }
      ],
      "payable": false,
      "stateMutability": "view",
      "type": "function"
    },
    {
      "constant": false,
      "inputs": [],
      "name": "reset",
      "outputs": [],
      "payable": false,
      "stateMutability": "nonpayable",
      "type": "function"
    },
    {
      "constant": false,
      "inputs": [
        {
          "internalType": "bool",
          "name": "_bet",
          "type": "bool"
        },
        {
          "internalType": "uint256",
          "name": "_nonce",
          "type": "uint256"
        }
      ],
      "name": "flipCoin",
      "outputs": [],
      "payable": true,
      "stateMutability": "payable",
      "type": "function"
    },
    {
      "constant": false,
      "inputs": [
        {
          "internalType": "bool",
          "name": "_bet",
          "type": "bool"
        }
      ],
      "name": "takeBet",
      "outputs": [],
      "payable": true,
      "stateMutability": "payable",
      "type": "function"
    },
    {
      "constant": false,
      "inputs": [
        {
          "internalType": "bool",
          "name": "_choice",
          "type": "bool"
        },
        {
          "internalType": "uint256",
          "name": "_nonce",
          "type": "uint256"
        }
      ],
      "name": "reveal",
      "outputs": [],
      "payable": true,
      "stateMutability": "payable",
      "type": "function"
    },
    {
      "constant": false,
      "inputs": [],
      "name": "cancel",
      "outputs": [],
      "payable": false,
      "stateMutability": "nonpayable",
      "type": "function"
    },
    {
      "constant": false,
      "inputs": [],
      "name": "claimTimeout",
      "outputs": [],
      "payable": false,
      "stateMutability": "nonpayable",
      "type": "function"
    }
  ],
  "bytecode": "0x60806040526040518060400160405280600881526020017f436f696e466c697000000000000000000000000000000000000000000000000081525060009080519060200190620000519291906200010d565b506040518060400160405280600281526020017f4346000000000000000000000000000000000000000000000000000000000000815250600190805190602001906200009f9291906200010d565b50348015620000ad57600080fd5b50600a600c81905550620f4240600360003373ffffffffffffffffffffffffffffffffffffffff1673ffffffffffffffffffffffffffffffffffffffff16815260200190815260200160002081905550620f4240600281905550620001bc565b828054600181600116156101000203166002900490600052602060002090601f016020900481019282601f106200015057805160ff191683800117855562000181565b8280016001018555821562000181579182015b828111156200018057825182559160200191906001019062000163565b5b50905062000190919062000194565b5090565b620001b991905b80821115620001b55760008160009055506001016200019b565b5090565b90565b6115be80620001cc6000396000f3fe6080604052600436106101405760003560e01c80634ba2363a116100b6578063d30895e41161006f578063d30895e41461062f578063d826f88f14610686578063dd62ed3e1461069d578063dfbf53ae14610722578063ea8a1af014610779578063eb13175d1461079057610140565b80634ba2363a146103ee57806359a5f12d1461041957806370a08231146104705780638e7ea5b2146104d557806395d89b411461052c578063a9059cbb146105bc57610140565b806318160ddd1161010857806318160ddd146102ac5780631bb6cb47146102d757806338a3fde71461032e57806339f3027d1461035e578063403c9fa8146103985780634665096d146103c357610140565b806301ab2a661461014557806306fdde031461019c5780630c9975971461022c5780630ce6e680146102665780630e1da6c314610295575b600080fd5b34801561015157600080fd5b5061015a6107bb565b604051808273ffffffffffffffffffffffffffffffffffffffff1673ffffffffffffffffffffffffffffffffffffffff16815260200191505060405180910390f35b3480156101a857600080fd5b506101b16107e5565b6040518080602001828103825283818151815260200191508051906020019080838360005b838110156101f15780820151818401526020810190506101d6565b50505050905090810190601f16801561021e5780820380516001836020036101000a031916815260200191505b509250505060405180910390f35b6102646004803603604081101561024257600080fd5b8101908080351515906020019092919080359060200190929190505050610883565b005b34801561027257600080fd5b5061027b61098c565b604051808215151515815260200191505060405180910390f35b3480156102a157600080fd5b506102aa61099f565b005b3480156102b857600080fd5b506102c1610a65565b6040518082815260200191505060405180910390f35b3480156102e357600080fd5b506102ec610a6b565b604051808273ffffffffffffffffffffffffffffffffffffffff1673ffffffffffffffffffffffffffffffffffffffff16815260200191505060405180910390f35b61035c6004803603602081101561034457600080fd5b81019080803515159060200190929190505050610a95565b005b6103966004803603604081101561037457600080fd5b8101908080351515906020019092919080359060200190929190505050610c2d565b005b3480156103a457600080fd5b506103ad610fda565b6040518082815260200191505060405180910390f35b3480156103cf57600080fd5b506103d8610fe4565b6040518082815260200191505060405180910390f35b3480156103fa57600080fd5b50610403610fea565b6040518082815260200191505060405180910390f35b34801561042557600080fd5b5061042e610ff0565b604051808273ffffffffffffffffffffffffffffffffffffffff1673ffffffffffffffffffffffffffffffffffffffff16815260200191505060405180910390f35b34801561047c57600080fd5b506104bf6004803603602081101561049357600080fd5b81019080803573ffffffffffffffffffffffffffffffffffffffff169060200190929190505050611016565b6040518082815260200191505060405180910390f35b3480156104e157600080fd5b506104ea61102e565b604051808273ffffffffffffffffffffffffffffffffffffffff1673ffffffffffffffffffffffffffffffffffffffff16815260200191505060405180910390f35b34801561053857600080fd5b50610541611058565b6040518080602001828103825283818151815260200191508051906020019080838360005b83811015610581578082015181840152602081019050610566565b50505050905090810190601f1680156105ae5780820380516001836020036101000a031916815260200191505b509250505060405180910390f35b3480156105c857600080fd5b50610615600480360360408110156105df57600080fd5b81019080803573ffffffffffffffffffffffffffffffffffffffff169060200190929190803590602001909291905050506110f6565b604051808215151515815260200191505060405180910390f35b34801561063b57600080fd5b5061064461124d565b604051808273ffffffffffffffffffffffffffffffffffffffff1673ffffffffffffffffffffffffffffffffffffffff16815260200191505060405180910390f35b34801561069257600080fd5b5061069b611273565b005b3480156106a957600080fd5b5061070c600480360360408110156106c057600080fd5b81019080803573ffffffffffffffffffffffffffffffffffffffff169060200190929190803573ffffffffffffffffffffffffffffffffffffffff169060200190929190505050611309565b6040518082815260200191505060405180910390f35b34801561072e57600080fd5b5061073761132e565b604051808273ffffffffffffffffffffffffffffffffffffffff1673ffffffffffffffffffffffffffffffffffffffff16815260200191505060405180910390f35b34801561078557600080fd5b5061078e611354565b005b34801561079c57600080fd5b506107a561149f565b6040518082815260200191505060405180910390f35b6000600560009054906101000a900473ffffffffffffffffffffffffffffffffffffffff16905090565b60008054600181600116156101000203166002900480601f01602080910402602001604051908101604052809291908181526020018280546001816001161561010002031660029004801561087b5780601f106108505761010080835404028352916020019161087b565b820191906000526020600020905b81548152906001019060200180831161085e57829003601f168201915b505050505081565b600c543410156108fb576040517f08c379a00000000000000000000000000000000000000000000000000000000081526004018080602001828103825260198152602001807f4d75737420626574206d696e696d616c6c79203130205765690000000000000081525060200191505060405180910390fd5b33600560006101000a81548173ffffffffffffffffffffffffffffffffffffffff021916908373ffffffffffffffffffffffffffffffffffffffff160217905550818160405160200180831515151560f81b8152600101828152602001925050506040516020818303038152906040528051906020012060088190555034600b600082825401925050819055505050565b600960009054906101000a900460ff1681565b600a544210156109fa576040517f08c379a000000000000000000000000000000000000000000000000000000000815260040180806020018281038252602a815260200180611528602a913960400191505060405180910390fd5b600660009054906101000a900473ffffffffffffffffffffffffffffffffffffffff1673ffffffffffffffffffffffffffffffffffffffff166108fc479081150290604051600060405180830381858888f19350505050158015610a62573d6000803e3d6000fd5b50565b60025481565b6000600660009054906101000a900473ffffffffffffffffffffffffffffffffffffffff16905090565b600073ffffffffffffffffffffffffffffffffffffffff16600660009054906101000a900473ffffffffffffffffffffffffffffffffffffffff1673ffffffffffffffffffffffffffffffffffffffff1614610b3c576040517f08c379a00000000000000000000000000000000000000000000000000000000081526004018080602001828103825260388152602001806114a66038913960400191505060405180910390fd5b600c54341015610bb4576040517f08c379a00000000000000000000000000000000000000000000000000000000081526004018080602001828103825260198152602001807f4d75737420626574206d696e696d616c6c79203130205765690000000000000081525060200191505060405180910390fd5b33600660006101000a81548173ffffffffffffffffffffffffffffffffffffffff021916908373ffffffffffffffffffffffffffffffffffffffff16021790555080600960006101000a81548160ff02191690831515021790555034600b600082825401925050819055506107084201600a8190555050565b600a54421180610c8b5750600073ffffffffffffffffffffffffffffffffffffffff16600660009054906101000a900473ffffffffffffffffffffffffffffffffffffffff1673ffffffffffffffffffffffffffffffffffffffff16145b15610ce1576040517f08c379a00000000000000000000000000000000000000000000000000000000081526004018080602001828103825260388152602001806115526038913960400191505060405180910390fd5b600854828260405160200180831515151560f81b8152600101828152602001925050506040516020818303038152906040528051906020012014610d8957600660009054906101000a900473ffffffffffffffffffffffffffffffffffffffff1673ffffffffffffffffffffffffffffffffffffffff166108fc479081150290604051600060405180830381858888f19350505050158015610d87573d6000803e3d6000fd5b505b811515600960009054906101000a900460ff1615151415610e7557600660009054906101000a900473ffffffffffffffffffffffffffffffffffffffff16600760006101000a81548173ffffffffffffffffffffffffffffffffffffffff021916908373ffffffffffffffffffffffffffffffffffffffff160217905550600660009054906101000a900473ffffffffffffffffffffffffffffffffffffffff1673ffffffffffffffffffffffffffffffffffffffff166108fc479081150290604051600060405180830381858888f19350505050158015610e6f573d6000803e3d6000fd5b50610f42565b600560009054906101000a900473ffffffffffffffffffffffffffffffffffffffff16600760006101000a81548173ffffffffffffffffffffffffffffffffffffffff021916908373ffffffffffffffffffffffffffffffffffffffff160217905550600560009054906101000a900473ffffffffffffffffffffffffffffffffffffffff1673ffffffffffffffffffffffffffffffffffffffff166108fc479081150290604051600060405180830381858888f19350505050158015610f40573d6000803e3d6000fd5b505b6000600560006101000a81548173ffffffffffffffffffffffffffffffffffffffff021916908373ffffffffffffffffffffffffffffffffffffffff1602179055506000600660006101000a81548173ffffffffffffffffffffffffffffffffffffffff021916908373ffffffffffffffffffffffffffffffffffffffff1602179055506000600a819055506000600b819055505050565b6000600b54905090565b600a5481565b600b5481565b600660009054906101000a900473ffffffffffffffffffffffffffffffffffffffff1681565b60036020528060005260406000206000915090505481565b6000600760009054906101000a900473ffffffffffffffffffffffffffffffffffffffff16905090565b60018054600181600116156101000203166002900480601f0160208091040260200160405190810160405280929190818152602001828054600181600116156101000203166002900480156110ee5780601f106110c3576101008083540402835291602001916110ee565b820191906000526020600020905b8154815290600101906020018083116110d157829003601f168201915b505050505081565b600081600360003373ffffffffffffffffffffffffffffffffffffffff1673ffffffffffffffffffffffffffffffffffffffff16815260200190815260200160002054101561114457600080fd5b81600360003373ffffffffffffffffffffffffffffffffffffffff1673ffffffffffffffffffffffffffffffffffffffff1681526020019081526020016000206000828254039250508190555081600360003373ffffffffffffffffffffffffffffffffffffffff1673ffffffffffffffffffffffffffffffffffffffff168152602001908152602001600020600082825401925050819055508273ffffffffffffffffffffffffffffffffffffffff163373ffffffffffffffffffffffffffffffffffffffff167fddf252ad1be2c89b69c2b068fc378daa952ba7f163c4a11628f55a4df523b3ef846040518082815260200191505060405180910390a36001905092915050565b600560009054906101000a900473ffffffffffffffffffffffffffffffffffffffff1681565b6000600560006101000a81548173ffffffffffffffffffffffffffffffffffffffff021916908373ffffffffffffffffffffffffffffffffffffffff1602179055506000600660006101000a81548173ffffffffffffffffffffffffffffffffffffffff021916908373ffffffffffffffffffffffffffffffffffffffff1602179055506000600a819055506000600b81905550565b6004602052816000526040600020602052806000526040600020600091509150505481565b600760009054906101000a900473ffffffffffffffffffffffffffffffffffffffff1681565b600560009054906101000a900473ffffffffffffffffffffffffffffffffffffffff1673ffffffffffffffffffffffffffffffffffffffff163373ffffffffffffffffffffffffffffffffffffffff161415806114005750600073ffffffffffffffffffffffffffffffffffffffff16600660009054906101000a900473ffffffffffffffffffffffffffffffffffffffff1673ffffffffffffffffffffffffffffffffffffffff1614155b15611456576040517f08c379a000000000000000000000000000000000000000000000000000000000815260040180806020018281038252604a8152602001806114de604a913960600191505060405180910390fd5b3373ffffffffffffffffffffffffffffffffffffffff166108fc479081150290604051600060405180830381858888f1935050505015801561149c573d6000803e3d6000fd5b50565b6008548156fe546865726520697320616c7265616479206120506c6179657220322c207761697420666f72206e6578742062657474696e6720726f756e644f6e6c7920506c6179657220312063616e2063616c6c2063616e63656c2066756e6374696f6e206f7220506c6179657220322068617320616c726561647920656e74657265642062657443616e6e6f7420636c61696d20756e74696c2061667465722065787069726174696f6e20706572696f645468652065787069726174696f6e20686173206265656e206578636565646564206f72207468657265206973206e6f20506c617965722032a265627a7a72315820b8cc758813e24d58a48e14f606a1d2f5bfd0b893077d6747792dddeb84060b4364736f6c63430005100032",
  "source": "pragma solidity ^0.5.0;\n\n\ncontract CoinFlip {\n\n\t// ERC-20 standard\n\tstring public name = \"CoinFlip\";\n\tstring public symbol = \"CF\";\n\tuint256 public totalSupply;\n\tmapping(address => uint256) public balanceOf;\n\tmapping(address => mapping(address => uint256)) public allowance;\n\n\tevent Transfer (\n\t\taddress indexed _from,\n\t\taddress indexed _to,\n\t\tuint256 _value\n\t);\n\n\tevent Approval (\n\t\taddress indexed _owner,\n\t\taddress indexed _spender,\n\t\tuint256 _value\n\t);\n\n\t// State variables for coin flip functions\n\taddress payable public player1;\n\taddress payable public player2;\n\taddress payable public winner;\n\n\tbytes32 public player1Commitment;\n\tbool public player2Choice;\n\n\tuint256 public expiration;\n\tuint public pot;\n\tuint minBet;\n\n\tconstructor() public {\n\t    minBet = 10 wei;\n\t    // Creator of contract will hold 1000000 tokens\n\t    balanceOf[msg.sender] = 1000000;\n\t    totalSupply = 1000000;\n\t}\n\n\tfunction transfer(address _to, uint256 _value) public returns (bool success) {\n\t\trequire(balanceOf[msg.sender] >= _value);\n\n\t\tbalanceOf[msg.sender] -= _value;\n\t\tbalanceOf[msg.sender] += _value;\n\n\t\temit Transfer(msg.sender, _to, _value);\n\n\t\treturn true;\n\t}\n\t\n\tfunction getPot() public view returns(uint) {\n\t    return pot;\n\t}\n\t\n\tfunction getWinner() public view returns(address payable) {\n\t    return winner;\n\t}\n\t\n\tfunction getPlayer1() public view returns(address payable) {\n\t    return player1;\n\t}\n\t\n\tfunction getPlayer2() public view returns(address payable) {\n\t    return player2;\n\t}\n\t\n\tfunction reset() public {\n\t    player1 = address(0);\n\t\tplayer2 = address(0);\n\t\texpiration = 0;\n\t\tpot = 0;\n\t}\n\n\tfunction flipCoin(bool _bet, uint256 _nonce) public payable {\n\t    // Player 1 must bet at least the minimum bet\n\t    if(msg.value < minBet) {\n\t        revert(\"Must bet minimally 10 Wei\");\n\t    }\n\t\tplayer1 = msg.sender;\n\t\tplayer1Commitment = keccak256(abi.encodePacked(_bet, _nonce));\n\t\tpot += msg.value;\n\t}\n\t\n\tfunction takeBet(bool _bet) public payable {\n\t\t// Only two players can play\n\t\tif(player2 != address(0)) {\n\t\t\trevert(\"There is already a Player 2, wait for next betting round\");\n\t\t}\n\n\t\t// player 2 must bet at least the minimum bet\n\t    if(msg.value < minBet) {\n\t        revert(\"Must bet minimally 10 Wei\");\n\t    }\n\n\t\t// Player 2 is the caller of this function\n\t\tplayer2 = msg.sender;\n\n\t\t// Set player 2 choice to arg passed\n\t\tplayer2Choice = _bet;\n\t\t\n\t\t// Update the pot\n\t\tpot += msg.value;\n\n\t\t// Set expiration timer for player 1 to reveal commitment\n\t\texpiration = now + 30 minutes;\n\t}\n\n\t// Called by player 1 to reveal his earlier bet\n\tfunction reveal(bool _choice, uint256 _nonce) public payable {\n\t\t//require(player2 != address(0));\n\t\tif(now > expiration || player2 == address(0)) {\n\t\t\trevert(\"The expiration has been exceeded or there is no Player 2\");\t\t\t\n\t\t}\n\n\t\t// choice must be the same as his initial commitment\n\t\tif (keccak256(abi.encodePacked(_choice, _nonce)) != player1Commitment) {\n\t\t\t// if player 1 deviates from protocol, he loses his bet amount to player 2\n\t\t\taddress(player2).transfer(address(this).balance);\n\t\t}\n\n\t\tif (player2Choice == _choice) {\n\t\t    winner = player2;\n\t\t\taddress(player2).transfer(address(this).balance);\n\t\t}\n\n\t\telse {\n\t\t    winner = player1;\n\t\t\taddress(player1).transfer(address(this).balance);\n\t\t}\n\t\t\n\t\t// Reset all state variables before new game\n\t\tplayer1 = address(0);\n\t\tplayer2 = address(0);\n\t\texpiration = 0;\n\t\tpot = 0;\n\t\t\n\t}\n\n\t// player 1 can cancel the bet before player 2 calls takeBet\n\tfunction cancel() public {\n\t\tif(msg.sender != player1 || player2 != address(0)) {\n\t\t\trevert(\"Only Player 1 can call cancel function or Player 2 has already entered bet\");\n\t\t}\n\t\t\n\t\t// give player 1 his money back\n\t\taddress(msg.sender).transfer(address(this).balance);\n\t}\n\n\t// player 2 can call timeout on player 1 if player 1 refuses to call reveal()\n\tfunction claimTimeout() public {\n\t\tif(now < expiration) {\n\t\t\trevert(\"Cannot claim until after expiration period\");\n\t\t}\n\n\t\taddress(player2).transfer(address(this).balance);\n\t}\n\n}",
  "sourcePath": "/Users/aidenchia/Desktop/50.037_Ex11/contracts/CoinFlip.sol",
  "compiler": {
    "name": "solc",
    "version": "0.5.16+commit.9c3226ce.Emscripten.clang"
  },
  "schemaVersion": "3.0.23",
  "updatedAt": "2020-04-19T07:07:12.400Z",
  "networkType": "ethereum",
  "devdoc": {
    "methods": {}
  },
  "userdoc": {
    "methods": {}
  }
}