{
  "contractName": "CoinFlip",
  "abi": [
    {
      "constant": true,
      "inputs": [],
      "name": "betAmount",
      "outputs": [
        {
          "internalType": "uint256",
          "name": "",
          "type": "uint256"
        }
      ],
      "payable": false,
      "stateMutability": "view",
      "type": "function"
    },
    {
      "constant": true,
      "inputs": [],
      "name": "expiration",
      "outputs": [
        {
          "internalType": "uint256",
          "name": "",
          "type": "uint256"
        }
      ],
      "payable": false,
      "stateMutability": "view",
      "type": "function"
    },
    {
      "constant": true,
      "inputs": [],
      "name": "player1",
      "outputs": [
        {
          "internalType": "address payable",
          "name": "",
          "type": "address"
        }
      ],
      "payable": false,
      "stateMutability": "view",
      "type": "function"
    },
    {
      "constant": true,
      "inputs": [],
      "name": "player1Commitment",
      "outputs": [
        {
          "internalType": "bytes32",
          "name": "",
          "type": "bytes32"
        }
      ],
      "payable": false,
      "stateMutability": "view",
      "type": "function"
    },
    {
      "constant": true,
      "inputs": [],
      "name": "player2",
      "outputs": [
        {
          "internalType": "address payable",
          "name": "",
          "type": "address"
        }
      ],
      "payable": false,
      "stateMutability": "view",
      "type": "function"
    },
    {
      "constant": true,
      "inputs": [],
      "name": "player2Choice",
      "outputs": [
        {
          "internalType": "bool",
          "name": "",
          "type": "bool"
        }
      ],
      "payable": false,
      "stateMutability": "view",
      "type": "function"
    },
    {
      "constant": false,
      "inputs": [
        {
          "internalType": "bool",
          "name": "_bet",
          "type": "bool"
        },
        {
          "internalType": "uint256",
          "name": "_nonce",
          "type": "uint256"
        }
      ],
      "name": "flipCoin",
      "outputs": [],
      "payable": true,
      "stateMutability": "payable",
      "type": "function"
    },
    {
      "constant": false,
      "inputs": [
        {
          "internalType": "bool",
          "name": "_bet",
          "type": "bool"
        }
      ],
      "name": "takeBet",
      "outputs": [],
      "payable": true,
      "stateMutability": "payable",
      "type": "function"
    },
    {
      "constant": false,
      "inputs": [
        {
          "internalType": "bool",
          "name": "_choice",
          "type": "bool"
        },
        {
          "internalType": "uint256",
          "name": "_nonce",
          "type": "uint256"
        }
      ],
      "name": "reveal",
      "outputs": [],
      "payable": true,
      "stateMutability": "payable",
      "type": "function"
    },
    {
      "constant": false,
      "inputs": [],
      "name": "cancel",
      "outputs": [],
      "payable": false,
      "stateMutability": "nonpayable",
      "type": "function"
    },
    {
      "constant": false,
      "inputs": [],
      "name": "claimTimeout",
      "outputs": [],
      "payable": false,
      "stateMutability": "nonpayable",
      "type": "function"
    }
  ],
  "bytecode": "0x608060405234801561001057600080fd5b5061087d806100206000396000f3fe60806040526004361061009c5760003560e01c80634665096d116100645780634665096d1461018b57806359a5f12d146101b6578063d24257c01461020d578063d30895e414610238578063ea8a1af01461028f578063eb13175d146102a65761009c565b80630c997597146100a15780630ce6e680146100db5780630e1da6c31461010a57806338a3fde71461012157806339f3027d14610151575b600080fd5b6100d9600480360360408110156100b757600080fd5b81019080803515159060200190929190803590602001909291905050506102d1565b005b3480156100e757600080fd5b506100f0610358565b604051808215151515815260200191505060405180910390f35b34801561011657600080fd5b5061011f61036b565b005b61014f6004803603602081101561013757600080fd5b810190808035151590602001909291905050506103f5565b005b6101896004803603604081101561016757600080fd5b81019080803515159060200190929190803590602001909291905050506104c6565b005b34801561019757600080fd5b506101a06106de565b6040518082815260200191505060405180910390f35b3480156101c257600080fd5b506101cb6106e4565b604051808273ffffffffffffffffffffffffffffffffffffffff1673ffffffffffffffffffffffffffffffffffffffff16815260200191505060405180910390f35b34801561021957600080fd5b5061022261070a565b6040518082815260200191505060405180910390f35b34801561024457600080fd5b5061024d610710565b604051808273ffffffffffffffffffffffffffffffffffffffff1673ffffffffffffffffffffffffffffffffffffffff16815260200191505060405180910390f35b34801561029b57600080fd5b506102a4610735565b005b3480156102b257600080fd5b506102bb610842565b6040518082815260200191505060405180910390f35b336000806101000a81548173ffffffffffffffffffffffffffffffffffffffff021916908373ffffffffffffffffffffffffffffffffffffffff160217905550818160405160200180831515151560f81b81526001018281526020019250505060405160208183030381529060405280519060200120600281905550346004819055505050565b600360009054906101000a900460ff1681565b60055442101561037a57600080fd5b600160009054906101000a900473ffffffffffffffffffffffffffffffffffffffff1673ffffffffffffffffffffffffffffffffffffffff166108fc479081150290604051600060405180830381858888f193505050501580156103e2573d6000803e3d6000fd5b5060006004819055506000600581905550565b600073ffffffffffffffffffffffffffffffffffffffff16600160009054906101000a900473ffffffffffffffffffffffffffffffffffffffff1673ffffffffffffffffffffffffffffffffffffffff161461045057600080fd5b600454341461045e57600080fd5b33600160006101000a81548173ffffffffffffffffffffffffffffffffffffffff021916908373ffffffffffffffffffffffffffffffffffffffff16021790555080600360006101000a81548160ff021916908315150217905550603c420160058190555050565b600073ffffffffffffffffffffffffffffffffffffffff16600160009054906101000a900473ffffffffffffffffffffffffffffffffffffffff1673ffffffffffffffffffffffffffffffffffffffff16141561052257600080fd5b600554421061053057600080fd5b600254828260405160200180831515151560f81b81526001018281526020019250505060405160208183030381529060405280519060200120146105d857600160009054906101000a900473ffffffffffffffffffffffffffffffffffffffff1673ffffffffffffffffffffffffffffffffffffffff166108fc479081150290604051600060405180830381858888f193505050501580156105d6573d6000803e3d6000fd5b505b811515600360009054906101000a900460ff161515141561066157600160009054906101000a900473ffffffffffffffffffffffffffffffffffffffff1673ffffffffffffffffffffffffffffffffffffffff166108fc479081150290604051600060405180830381858888f1935050505015801561065b573d6000803e3d6000fd5b506106ca565b6000809054906101000a900473ffffffffffffffffffffffffffffffffffffffff1673ffffffffffffffffffffffffffffffffffffffff166108fc479081150290604051600060405180830381858888f193505050501580156106c8573d6000803e3d6000fd5b505b600060048190555060006005819055505050565b60055481565b600160009054906101000a900473ffffffffffffffffffffffffffffffffffffffff1681565b60045481565b6000809054906101000a900473ffffffffffffffffffffffffffffffffffffffff1681565b6000809054906101000a900473ffffffffffffffffffffffffffffffffffffffff1673ffffffffffffffffffffffffffffffffffffffff163373ffffffffffffffffffffffffffffffffffffffff161461078e57600080fd5b600073ffffffffffffffffffffffffffffffffffffffff16600160009054906101000a900473ffffffffffffffffffffffffffffffffffffffff1673ffffffffffffffffffffffffffffffffffffffff16146107e957600080fd5b600060048190555060006005819055503373ffffffffffffffffffffffffffffffffffffffff166108fc479081150290604051600060405180830381858888f1935050505015801561083f573d6000803e3d6000fd5b50565b6002548156fea265627a7a72315820c03f72d7e30387be202753915f1ea2f7d0ca4d352f13a16233f72955df57d36164736f6c63430005100032",
  "source": "pragma solidity ^0.5.0;\n\n\ncontract CoinFlip {\n\taddress payable public player1;\n\taddress payable public player2;\n\n\tbytes32 public player1Commitment;\n\tbool public player2Choice;\n\n\tuint256 public betAmount;\n\tuint256 public expiration;\n\n\tfunction flipCoin(bool _bet, uint256 _nonce) public payable {\n\t\tplayer1 = msg.sender;\n\t\tplayer1Commitment = keccak256(abi.encodePacked(_bet, _nonce));\n\t\tbetAmount = msg.value;\n\t}\n\n\tfunction takeBet(bool _bet) public payable {\n\t\t// Only two players can play\n\t\trequire(player2 == address(0));\n\n\t\t// player 2 must bet amount == player 1 bet\n\t\trequire(msg.value == betAmount);\n\n\t\t// Player 2 is the caller of this function\n\t\tplayer2 = msg.sender;\n\n\t\t// Set player 2 choice to arg passed\n\t\tplayer2Choice = _bet;\n\n\t\t// Set expiration timer for player 1 to reveal commitment\n\t\texpiration = now + 1 minutes;\n\t}\n\n\t// Called by player 1 to reveal his earlier bet\n\tfunction reveal(bool _choice, uint256 _nonce) public payable {\n\t\trequire(player2 != address(0));\n\t\trequire(now < expiration);\n\n\t\t// choice must be the same as his initial commitment\n\t\tif (keccak256(abi.encodePacked(_choice, _nonce)) != player1Commitment) {\n\t\t\t// if player 1 deviates from protocol, he loses his bet amount to player 2\n\t\t\taddress(player2).transfer(address(this).balance);\n\t\t}\n\n\t\tif (player2Choice == _choice) {\n\t\t\taddress(player2).transfer(address(this).balance);\n\t\t}\n\n\t\telse {\n\t\t\taddress(player1).transfer(address(this).balance);\n\t\t}\n\n\t\t// reset the bet amount and expiration\n\t\tbetAmount = 0;\n\t\texpiration = 0;\n\t}\n\n\t// player 1 can cancel the bet before player 2 calls takeBet\n\tfunction cancel() public {\n\t\trequire(msg.sender == player1);\n\t\trequire(player2 == address(0));\n\n\t\t// reset the bet amount and expiration\n\t\tbetAmount = 0;\n\t\texpiration = 0;\n\n\t\t// give player 1 his money back\n\t\taddress(msg.sender).transfer(address(this).balance);\n\t}\n\n\t// player 2 can call timeout on player 1 if player 1 refuses to call reveal()\n\tfunction claimTimeout() public {\n\t\trequire(now >= expiration);\n\n\t\taddress(player2).transfer(address(this).balance);\n\n\t\t// reset the bet amount and expiration\n\t\tbetAmount = 0;\n\t\texpiration = 0;\n\t}\n\n\n\n}",
  "sourcePath": "/Users/aidenchia/Desktop/50.037_Ex11/contracts/CoinFlip.sol",
  "compiler": {
    "name": "solc",
    "version": "0.5.16+commit.9c3226ce.Emscripten.clang"
  },
  "schemaVersion": "3.0.23",
  "updatedAt": "2020-04-18T09:22:47.858Z",
  "networkType": "ethereum",
  "devdoc": {
    "methods": {}
  },
  "userdoc": {
    "methods": {}
  }
}