{
  "contractName": "CoinFlip",
  "abi": [
    {
      "inputs": [],
      "payable": false,
      "stateMutability": "nonpayable",
      "type": "constructor"
    },
    {
      "anonymous": false,
      "inputs": [
        {
          "indexed": true,
          "internalType": "address",
          "name": "_owner",
          "type": "address"
        },
        {
          "indexed": true,
          "internalType": "address",
          "name": "_spender",
          "type": "address"
        },
        {
          "indexed": false,
          "internalType": "uint256",
          "name": "_value",
          "type": "uint256"
        }
      ],
      "name": "Approval",
      "type": "event"
    },
    {
      "anonymous": false,
      "inputs": [
        {
          "indexed": true,
          "internalType": "address",
          "name": "_from",
          "type": "address"
        },
        {
          "indexed": true,
          "internalType": "address",
          "name": "_to",
          "type": "address"
        },
        {
          "indexed": false,
          "internalType": "uint256",
          "name": "_value",
          "type": "uint256"
        }
      ],
      "name": "Transfer",
      "type": "event"
    },
    {
      "constant": true,
      "inputs": [
        {
          "internalType": "address",
          "name": "",
          "type": "address"
        },
        {
          "internalType": "address",
          "name": "",
          "type": "address"
        }
      ],
      "name": "allowance",
      "outputs": [
        {
          "internalType": "uint256",
          "name": "",
          "type": "uint256"
        }
      ],
      "payable": false,
      "stateMutability": "view",
      "type": "function"
    },
    {
      "constant": true,
      "inputs": [
        {
          "internalType": "address",
          "name": "",
          "type": "address"
        }
      ],
      "name": "balanceOf",
      "outputs": [
        {
          "internalType": "uint256",
          "name": "",
          "type": "uint256"
        }
      ],
      "payable": false,
      "stateMutability": "view",
      "type": "function"
    },
    {
      "constant": true,
      "inputs": [],
      "name": "expiration",
      "outputs": [
        {
          "internalType": "uint256",
          "name": "",
          "type": "uint256"
        }
      ],
      "payable": false,
      "stateMutability": "view",
      "type": "function"
    },
    {
      "constant": true,
      "inputs": [],
      "name": "name",
      "outputs": [
        {
          "internalType": "string",
          "name": "",
          "type": "string"
        }
      ],
      "payable": false,
      "stateMutability": "view",
      "type": "function"
    },
    {
      "constant": true,
      "inputs": [],
      "name": "player1",
      "outputs": [
        {
          "internalType": "address payable",
          "name": "",
          "type": "address"
        }
      ],
      "payable": false,
      "stateMutability": "view",
      "type": "function"
    },
    {
      "constant": true,
      "inputs": [],
      "name": "player1Commitment",
      "outputs": [
        {
          "internalType": "bytes32",
          "name": "",
          "type": "bytes32"
        }
      ],
      "payable": false,
      "stateMutability": "view",
      "type": "function"
    },
    {
      "constant": true,
      "inputs": [],
      "name": "player2",
      "outputs": [
        {
          "internalType": "address payable",
          "name": "",
          "type": "address"
        }
      ],
      "payable": false,
      "stateMutability": "view",
      "type": "function"
    },
    {
      "constant": true,
      "inputs": [],
      "name": "player2Choice",
      "outputs": [
        {
          "internalType": "bool",
          "name": "",
          "type": "bool"
        }
      ],
      "payable": false,
      "stateMutability": "view",
      "type": "function"
    },
    {
      "constant": true,
      "inputs": [],
      "name": "pot",
      "outputs": [
        {
          "internalType": "uint256",
          "name": "",
          "type": "uint256"
        }
      ],
      "payable": false,
      "stateMutability": "view",
      "type": "function"
    },
    {
      "constant": true,
      "inputs": [],
      "name": "symbol",
      "outputs": [
        {
          "internalType": "string",
          "name": "",
          "type": "string"
        }
      ],
      "payable": false,
      "stateMutability": "view",
      "type": "function"
    },
    {
      "constant": true,
      "inputs": [],
      "name": "totalSupply",
      "outputs": [
        {
          "internalType": "uint256",
          "name": "",
          "type": "uint256"
        }
      ],
      "payable": false,
      "stateMutability": "view",
      "type": "function"
    },
    {
      "constant": true,
      "inputs": [],
      "name": "winner",
      "outputs": [
        {
          "internalType": "address payable",
          "name": "",
          "type": "address"
        }
      ],
      "payable": false,
      "stateMutability": "view",
      "type": "function"
    },
    {
      "constant": false,
      "inputs": [
        {
          "internalType": "address",
          "name": "_to",
          "type": "address"
        },
        {
          "internalType": "uint256",
          "name": "_value",
          "type": "uint256"
        }
      ],
      "name": "transfer",
      "outputs": [
        {
          "internalType": "bool",
          "name": "success",
          "type": "bool"
        }
      ],
      "payable": false,
      "stateMutability": "nonpayable",
      "type": "function"
    },
    {
      "constant": false,
      "inputs": [
        {
          "internalType": "address",
          "name": "_spender",
          "type": "address"
        },
        {
          "internalType": "uint256",
          "name": "_value",
          "type": "uint256"
        }
      ],
      "name": "approve",
      "outputs": [
        {
          "internalType": "bool",
          "name": "success",
          "type": "bool"
        }
      ],
      "payable": false,
      "stateMutability": "nonpayable",
      "type": "function"
    },
    {
      "constant": false,
      "inputs": [
        {
          "internalType": "address",
          "name": "_from",
          "type": "address"
        },
        {
          "internalType": "address",
          "name": "_to",
          "type": "address"
        },
        {
          "internalType": "uint256",
          "name": "_value",
          "type": "uint256"
        }
      ],
      "name": "transferFrom",
      "outputs": [
        {
          "internalType": "bool",
          "name": "success",
          "type": "bool"
        }
      ],
      "payable": false,
      "stateMutability": "nonpayable",
      "type": "function"
    },
    {
      "constant": true,
      "inputs": [],
      "name": "getPot",
      "outputs": [
        {
          "internalType": "uint256",
          "name": "",
          "type": "uint256"
        }
      ],
      "payable": false,
      "stateMutability": "view",
      "type": "function"
    },
    {
      "constant": true,
      "inputs": [],
      "name": "getWinner",
      "outputs": [
        {
          "internalType": "address payable",
          "name": "",
          "type": "address"
        }
      ],
      "payable": false,
      "stateMutability": "view",
      "type": "function"
    },
    {
      "constant": true,
      "inputs": [],
      "name": "getPlayer1",
      "outputs": [
        {
          "internalType": "address payable",
          "name": "",
          "type": "address"
        }
      ],
      "payable": false,
      "stateMutability": "view",
      "type": "function"
    },
    {
      "constant": true,
      "inputs": [],
      "name": "getPlayer2",
      "outputs": [
        {
          "internalType": "address payable",
          "name": "",
          "type": "address"
        }
      ],
      "payable": false,
      "stateMutability": "view",
      "type": "function"
    },
    {
      "constant": false,
      "inputs": [],
      "name": "reset",
      "outputs": [],
      "payable": false,
      "stateMutability": "nonpayable",
      "type": "function"
    },
    {
      "constant": false,
      "inputs": [
        {
          "internalType": "bool",
          "name": "_bet",
          "type": "bool"
        },
        {
          "internalType": "uint256",
          "name": "_nonce",
          "type": "uint256"
        }
      ],
      "name": "flipCoin",
      "outputs": [],
      "payable": true,
      "stateMutability": "payable",
      "type": "function"
    },
    {
      "constant": false,
      "inputs": [
        {
          "internalType": "bool",
          "name": "_bet",
          "type": "bool"
        }
      ],
      "name": "takeBet",
      "outputs": [],
      "payable": true,
      "stateMutability": "payable",
      "type": "function"
    },
    {
      "constant": false,
      "inputs": [
        {
          "internalType": "bool",
          "name": "_choice",
          "type": "bool"
        },
        {
          "internalType": "uint256",
          "name": "_nonce",
          "type": "uint256"
        }
      ],
      "name": "reveal",
      "outputs": [],
      "payable": true,
      "stateMutability": "payable",
      "type": "function"
    },
    {
      "constant": false,
      "inputs": [],
      "name": "cancel",
      "outputs": [],
      "payable": false,
      "stateMutability": "nonpayable",
      "type": "function"
    },
    {
      "constant": false,
      "inputs": [],
      "name": "claimTimeout",
      "outputs": [],
      "payable": false,
      "stateMutability": "nonpayable",
      "type": "function"
    }
  ],
  "bytecode": "0x60806040526040518060400160405280600881526020017f436f696e466c697000000000000000000000000000000000000000000000000081525060009080519060200190620000519291906200010d565b506040518060400160405280600281526020017f4346000000000000000000000000000000000000000000000000000000000000815250600190805190602001906200009f9291906200010d565b50348015620000ad57600080fd5b50600a600c81905550620f4240600360003373ffffffffffffffffffffffffffffffffffffffff1673ffffffffffffffffffffffffffffffffffffffff16815260200190815260200160002081905550620f4240600281905550620001bc565b828054600181600116156101000203166002900490600052602060002090601f016020900481019282601f106200015057805160ff191683800117855562000181565b8280016001018555821562000181579182015b828111156200018057825182559160200191906001019062000163565b5b50905062000190919062000194565b5090565b620001b991905b80821115620001b55760008160009055506001016200019b565b5090565b90565b611a4780620001cc6000396000f3fe6080604052600436106101665760003560e01c80634665096d116100d1578063a9059cbb1161008a578063dd62ed3e11610064578063dd62ed3e146107c9578063dfbf53ae1461084e578063ea8a1af0146108a5578063eb13175d146108bc57610166565b8063a9059cbb146106e8578063d30895e41461075b578063d826f88f146107b257610166565b80634665096d146104ef5780634ba2363a1461051a57806359a5f12d1461054557806370a082311461059c5780638e7ea5b21461060157806395d89b411461065857610166565b806318160ddd1161012357806318160ddd146103455780631bb6cb471461037057806323b872dd146103c757806338a3fde71461045a57806339f3027d1461048a578063403c9fa8146104c457610166565b806301ab2a661461016b57806306fdde03146101c2578063095ea7b3146102525780630c997597146102c55780630ce6e680146102ff5780630e1da6c31461032e575b600080fd5b34801561017757600080fd5b506101806108e7565b604051808273ffffffffffffffffffffffffffffffffffffffff1673ffffffffffffffffffffffffffffffffffffffff16815260200191505060405180910390f35b3480156101ce57600080fd5b506101d7610911565b6040518080602001828103825283818151815260200191508051906020019080838360005b838110156102175780820151818401526020810190506101fc565b50505050905090810190601f1680156102445780820380516001836020036101000a031916815260200191505b509250505060405180910390f35b34801561025e57600080fd5b506102ab6004803603604081101561027557600080fd5b81019080803573ffffffffffffffffffffffffffffffffffffffff169060200190929190803590602001909291905050506109af565b604051808215151515815260200191505060405180910390f35b6102fd600480360360408110156102db57600080fd5b8101908080351515906020019092919080359060200190929190505050610aa1565b005b34801561030b57600080fd5b50610314610baa565b604051808215151515815260200191505060405180910390f35b34801561033a57600080fd5b50610343610bbd565b005b34801561035157600080fd5b5061035a610c83565b6040518082815260200191505060405180910390f35b34801561037c57600080fd5b50610385610c89565b604051808273ffffffffffffffffffffffffffffffffffffffff1673ffffffffffffffffffffffffffffffffffffffff16815260200191505060405180910390f35b3480156103d357600080fd5b50610440600480360360608110156103ea57600080fd5b81019080803573ffffffffffffffffffffffffffffffffffffffff169060200190929190803573ffffffffffffffffffffffffffffffffffffffff16906020019092919080359060200190929190505050610cb3565b604051808215151515815260200191505060405180910390f35b6104886004803603602081101561047057600080fd5b81019080803515159060200190929190505050610f1e565b005b6104c2600480360360408110156104a057600080fd5b81019080803515159060200190929190803590602001909291905050506110b6565b005b3480156104d057600080fd5b506104d9611463565b6040518082815260200191505060405180910390f35b3480156104fb57600080fd5b5061050461146d565b6040518082815260200191505060405180910390f35b34801561052657600080fd5b5061052f611473565b6040518082815260200191505060405180910390f35b34801561055157600080fd5b5061055a611479565b604051808273ffffffffffffffffffffffffffffffffffffffff1673ffffffffffffffffffffffffffffffffffffffff16815260200191505060405180910390f35b3480156105a857600080fd5b506105eb600480360360208110156105bf57600080fd5b81019080803573ffffffffffffffffffffffffffffffffffffffff16906020019092919050505061149f565b6040518082815260200191505060405180910390f35b34801561060d57600080fd5b506106166114b7565b604051808273ffffffffffffffffffffffffffffffffffffffff1673ffffffffffffffffffffffffffffffffffffffff16815260200191505060405180910390f35b34801561066457600080fd5b5061066d6114e1565b6040518080602001828103825283818151815260200191508051906020019080838360005b838110156106ad578082015181840152602081019050610692565b50505050905090810190601f1680156106da5780820380516001836020036101000a031916815260200191505b509250505060405180910390f35b3480156106f457600080fd5b506107416004803603604081101561070b57600080fd5b81019080803573ffffffffffffffffffffffffffffffffffffffff1690602001909291908035906020019092919050505061157f565b604051808215151515815260200191505060405180910390f35b34801561076757600080fd5b506107706116d6565b604051808273ffffffffffffffffffffffffffffffffffffffff1673ffffffffffffffffffffffffffffffffffffffff16815260200191505060405180910390f35b3480156107be57600080fd5b506107c76116fc565b005b3480156107d557600080fd5b50610838600480360360408110156107ec57600080fd5b81019080803573ffffffffffffffffffffffffffffffffffffffff169060200190929190803573ffffffffffffffffffffffffffffffffffffffff169060200190929190505050611792565b6040518082815260200191505060405180910390f35b34801561085a57600080fd5b506108636117b7565b604051808273ffffffffffffffffffffffffffffffffffffffff1673ffffffffffffffffffffffffffffffffffffffff16815260200191505060405180910390f35b3480156108b157600080fd5b506108ba6117dd565b005b3480156108c857600080fd5b506108d1611928565b6040518082815260200191505060405180910390f35b6000600560009054906101000a900473ffffffffffffffffffffffffffffffffffffffff16905090565b60008054600181600116156101000203166002900480601f0160208091040260200160405190810160405280929190818152602001828054600181600116156101000203166002900480156109a75780601f1061097c576101008083540402835291602001916109a7565b820191906000526020600020905b81548152906001019060200180831161098a57829003601f168201915b505050505081565b600081600460003373ffffffffffffffffffffffffffffffffffffffff1673ffffffffffffffffffffffffffffffffffffffff16815260200190815260200160002060008573ffffffffffffffffffffffffffffffffffffffff1673ffffffffffffffffffffffffffffffffffffffff168152602001908152602001600020819055508273ffffffffffffffffffffffffffffffffffffffff163373ffffffffffffffffffffffffffffffffffffffff167f8c5be1e5ebec7d5bd14f71427d1e84f3dd0314c0f7b2291e5b200ac8c7c3b925846040518082815260200191505060405180910390a36001905092915050565b600c54341015610b19576040517f08c379a00000000000000000000000000000000000000000000000000000000081526004018080602001828103825260198152602001807f4d75737420626574206d696e696d616c6c79203130205765690000000000000081525060200191505060405180910390fd5b33600560006101000a81548173ffffffffffffffffffffffffffffffffffffffff021916908373ffffffffffffffffffffffffffffffffffffffff160217905550818160405160200180831515151560f81b8152600101828152602001925050506040516020818303038152906040528051906020012060088190555034600b600082825401925050819055505050565b600960009054906101000a900460ff1681565b600a54421015610c18576040517f08c379a000000000000000000000000000000000000000000000000000000000815260040180806020018281038252602a8152602001806119b1602a913960400191505060405180910390fd5b600660009054906101000a900473ffffffffffffffffffffffffffffffffffffffff1673ffffffffffffffffffffffffffffffffffffffff166108fc479081150290604051600060405180830381858888f19350505050158015610c80573d6000803e3d6000fd5b50565b60025481565b6000600660009054906101000a900473ffffffffffffffffffffffffffffffffffffffff16905090565b6000600360008573ffffffffffffffffffffffffffffffffffffffff1673ffffffffffffffffffffffffffffffffffffffff16815260200190815260200160002054821115610d0157600080fd5b600460008573ffffffffffffffffffffffffffffffffffffffff1673ffffffffffffffffffffffffffffffffffffffff16815260200190815260200160002060003373ffffffffffffffffffffffffffffffffffffffff1673ffffffffffffffffffffffffffffffffffffffff16815260200190815260200160002054821115610d8a57600080fd5b81600360008673ffffffffffffffffffffffffffffffffffffffff1673ffffffffffffffffffffffffffffffffffffffff1681526020019081526020016000206000828254039250508190555081600360008573ffffffffffffffffffffffffffffffffffffffff1673ffffffffffffffffffffffffffffffffffffffff1681526020019081526020016000206000828254019250508190555081600460008673ffffffffffffffffffffffffffffffffffffffff1673ffffffffffffffffffffffffffffffffffffffff16815260200190815260200160002060003373ffffffffffffffffffffffffffffffffffffffff1673ffffffffffffffffffffffffffffffffffffffff168152602001908152602001600020600082825403925050819055508273ffffffffffffffffffffffffffffffffffffffff168473ffffffffffffffffffffffffffffffffffffffff167fddf252ad1be2c89b69c2b068fc378daa952ba7f163c4a11628f55a4df523b3ef846040518082815260200191505060405180910390a3600190509392505050565b600073ffffffffffffffffffffffffffffffffffffffff16600660009054906101000a900473ffffffffffffffffffffffffffffffffffffffff1673ffffffffffffffffffffffffffffffffffffffff1614610fc5576040517f08c379a000000000000000000000000000000000000000000000000000000000815260040180806020018281038252603881526020018061192f6038913960400191505060405180910390fd5b600c5434101561103d576040517f08c379a00000000000000000000000000000000000000000000000000000000081526004018080602001828103825260198152602001807f4d75737420626574206d696e696d616c6c79203130205765690000000000000081525060200191505060405180910390fd5b33600660006101000a81548173ffffffffffffffffffffffffffffffffffffffff021916908373ffffffffffffffffffffffffffffffffffffffff16021790555080600960006101000a81548160ff02191690831515021790555034600b600082825401925050819055506107084201600a8190555050565b600a544211806111145750600073ffffffffffffffffffffffffffffffffffffffff16600660009054906101000a900473ffffffffffffffffffffffffffffffffffffffff1673ffffffffffffffffffffffffffffffffffffffff16145b1561116a576040517f08c379a00000000000000000000000000000000000000000000000000000000081526004018080602001828103825260388152602001806119db6038913960400191505060405180910390fd5b600854828260405160200180831515151560f81b815260010182815260200192505050604051602081830303815290604052805190602001201461121257600660009054906101000a900473ffffffffffffffffffffffffffffffffffffffff1673ffffffffffffffffffffffffffffffffffffffff166108fc479081150290604051600060405180830381858888f19350505050158015611210573d6000803e3d6000fd5b505b811515600960009054906101000a900460ff16151514156112fe57600660009054906101000a900473ffffffffffffffffffffffffffffffffffffffff16600760006101000a81548173ffffffffffffffffffffffffffffffffffffffff021916908373ffffffffffffffffffffffffffffffffffffffff160217905550600660009054906101000a900473ffffffffffffffffffffffffffffffffffffffff1673ffffffffffffffffffffffffffffffffffffffff166108fc479081150290604051600060405180830381858888f193505050501580156112f8573d6000803e3d6000fd5b506113cb565b600560009054906101000a900473ffffffffffffffffffffffffffffffffffffffff16600760006101000a81548173ffffffffffffffffffffffffffffffffffffffff021916908373ffffffffffffffffffffffffffffffffffffffff160217905550600560009054906101000a900473ffffffffffffffffffffffffffffffffffffffff1673ffffffffffffffffffffffffffffffffffffffff166108fc479081150290604051600060405180830381858888f193505050501580156113c9573d6000803e3d6000fd5b505b6000600560006101000a81548173ffffffffffffffffffffffffffffffffffffffff021916908373ffffffffffffffffffffffffffffffffffffffff1602179055506000600660006101000a81548173ffffffffffffffffffffffffffffffffffffffff021916908373ffffffffffffffffffffffffffffffffffffffff1602179055506000600a819055506000600b819055505050565b6000600b54905090565b600a5481565b600b5481565b600660009054906101000a900473ffffffffffffffffffffffffffffffffffffffff1681565b60036020528060005260406000206000915090505481565b6000600760009054906101000a900473ffffffffffffffffffffffffffffffffffffffff16905090565b60018054600181600116156101000203166002900480601f0160208091040260200160405190810160405280929190818152602001828054600181600116156101000203166002900480156115775780601f1061154c57610100808354040283529160200191611577565b820191906000526020600020905b81548152906001019060200180831161155a57829003601f168201915b505050505081565b600081600360003373ffffffffffffffffffffffffffffffffffffffff1673ffffffffffffffffffffffffffffffffffffffff1681526020019081526020016000205410156115cd57600080fd5b81600360003373ffffffffffffffffffffffffffffffffffffffff1673ffffffffffffffffffffffffffffffffffffffff1681526020019081526020016000206000828254039250508190555081600360003373ffffffffffffffffffffffffffffffffffffffff1673ffffffffffffffffffffffffffffffffffffffff168152602001908152602001600020600082825401925050819055508273ffffffffffffffffffffffffffffffffffffffff163373ffffffffffffffffffffffffffffffffffffffff167fddf252ad1be2c89b69c2b068fc378daa952ba7f163c4a11628f55a4df523b3ef846040518082815260200191505060405180910390a36001905092915050565b600560009054906101000a900473ffffffffffffffffffffffffffffffffffffffff1681565b6000600560006101000a81548173ffffffffffffffffffffffffffffffffffffffff021916908373ffffffffffffffffffffffffffffffffffffffff1602179055506000600660006101000a81548173ffffffffffffffffffffffffffffffffffffffff021916908373ffffffffffffffffffffffffffffffffffffffff1602179055506000600a819055506000600b81905550565b6004602052816000526040600020602052806000526040600020600091509150505481565b600760009054906101000a900473ffffffffffffffffffffffffffffffffffffffff1681565b600560009054906101000a900473ffffffffffffffffffffffffffffffffffffffff1673ffffffffffffffffffffffffffffffffffffffff163373ffffffffffffffffffffffffffffffffffffffff161415806118895750600073ffffffffffffffffffffffffffffffffffffffff16600660009054906101000a900473ffffffffffffffffffffffffffffffffffffffff1673ffffffffffffffffffffffffffffffffffffffff1614155b156118df576040517f08c379a000000000000000000000000000000000000000000000000000000000815260040180806020018281038252604a815260200180611967604a913960600191505060405180910390fd5b3373ffffffffffffffffffffffffffffffffffffffff166108fc479081150290604051600060405180830381858888f19350505050158015611925573d6000803e3d6000fd5b50565b6008548156fe546865726520697320616c7265616479206120506c6179657220322c207761697420666f72206e6578742062657474696e6720726f756e644f6e6c7920506c6179657220312063616e2063616c6c2063616e63656c2066756e6374696f6e206f7220506c6179657220322068617320616c726561647920656e74657265642062657443616e6e6f7420636c61696d20756e74696c2061667465722065787069726174696f6e20706572696f645468652065787069726174696f6e20686173206265656e206578636565646564206f72207468657265206973206e6f20506c617965722032a265627a7a7231582045103f5b1ad525efa4dd909f83e0ed0cd77f1c3c961f45e0e97f9036da0c89d164736f6c63430005100032",
  "source": "pragma solidity ^0.5.0;\n\n\ncontract CoinFlip {\n\n\t// ERC-20 standard\n\tstring public name = \"CoinFlip\";\n\tstring public symbol = \"CF\";\n\tuint256 public totalSupply;\n\tmapping(address => uint256) public balanceOf;\n\tmapping(address => mapping(address => uint256)) public allowance;\n\n\tevent Transfer (\n\t\taddress indexed _from,\n\t\taddress indexed _to,\n\t\tuint256 _value\n\t);\n\n\tevent Approval (\n\t\taddress indexed _owner,\n\t\taddress indexed _spender,\n\t\tuint256 _value\n\t);\n\n\t// State variables for coin flip functions\n\taddress payable public player1;\n\taddress payable public player2;\n\taddress payable public winner;\n\n\tbytes32 public player1Commitment;\n\tbool public player2Choice;\n\n\tuint256 public expiration;\n\tuint public pot;\n\tuint minBet;\n\n\tconstructor() public {\n\t    minBet = 10 wei;\n\t    // Creator of contract will hold 1000000 tokens\n\t    balanceOf[msg.sender] = 1000000;\n\t    totalSupply = 1000000;\n\t}\n\n\tfunction transfer(address _to, uint256 _value) public returns (bool success) {\n\t\trequire(balanceOf[msg.sender] >= _value);\n\n\t\tbalanceOf[msg.sender] -= _value;\n\t\tbalanceOf[msg.sender] += _value;\n\n\t\temit Transfer(msg.sender, _to, _value);\n\n\t\treturn true;\n\t}\n\n\tfunction approve(address _spender, uint256 _value) public returns (bool success) {\n\t\tallowance[msg.sender][_spender] = _value;\n\n\t\temit Approval(msg.sender, _spender, _value);\n\n\t\treturn true;\n\t}\n\n\tfunction transferFrom(address _from, address _to, uint256 _value) public returns (bool success) {\n\t\trequire(_value <= balanceOf[_from]);\n\t\trequire(_value <= allowance[_from][msg.sender]);\n\n\t\tbalanceOf[_from] -= _value;\n\t\tbalanceOf[_to] += _value;\n\n\t\tallowance[_from][msg.sender] -= _value;\n\n\t\temit Transfer(_from, _to, _value);\n\n\t\treturn true;\n\t}\n\t\n\tfunction getPot() public view returns(uint) {\n\t    return pot;\n\t}\n\t\n\tfunction getWinner() public view returns(address payable) {\n\t    return winner;\n\t}\n\t\n\tfunction getPlayer1() public view returns(address payable) {\n\t    return player1;\n\t}\n\t\n\tfunction getPlayer2() public view returns(address payable) {\n\t    return player2;\n\t}\n\t\n\tfunction reset() public {\n\t    player1 = address(0);\n\t\tplayer2 = address(0);\n\t\texpiration = 0;\n\t\tpot = 0;\n\t}\n\n\tfunction flipCoin(bool _bet, uint256 _nonce) public payable {\n\t    // Player 1 must bet at least the minimum bet\n\t    if(msg.value < minBet) {\n\t        revert(\"Must bet minimally 10 Wei\");\n\t    }\n\t\tplayer1 = msg.sender;\n\t\tplayer1Commitment = keccak256(abi.encodePacked(_bet, _nonce));\n\t\tpot += msg.value;\n\t}\n\t\n\tfunction takeBet(bool _bet) public payable {\n\t\t// Only two players can play\n\t\tif(player2 != address(0)) {\n\t\t\trevert(\"There is already a Player 2, wait for next betting round\");\n\t\t}\n\n\t\t// player 2 must bet at least the minimum bet\n\t    if(msg.value < minBet) {\n\t        revert(\"Must bet minimally 10 Wei\");\n\t    }\n\n\t\t// Player 2 is the caller of this function\n\t\tplayer2 = msg.sender;\n\n\t\t// Set player 2 choice to arg passed\n\t\tplayer2Choice = _bet;\n\t\t\n\t\t// Update the pot\n\t\tpot += msg.value;\n\n\t\t// Set expiration timer for player 1 to reveal commitment\n\t\texpiration = now + 30 minutes;\n\t}\n\n\t// Called by player 1 to reveal his earlier bet\n\tfunction reveal(bool _choice, uint256 _nonce) public payable {\n\t\t//require(player2 != address(0));\n\t\tif(now > expiration || player2 == address(0)) {\n\t\t\trevert(\"The expiration has been exceeded or there is no Player 2\");\t\t\t\n\t\t}\n\n\t\t// choice must be the same as his initial commitment\n\t\tif (keccak256(abi.encodePacked(_choice, _nonce)) != player1Commitment) {\n\t\t\t// if player 1 deviates from protocol, he loses his bet amount to player 2\n\t\t\taddress(player2).transfer(address(this).balance);\n\t\t}\n\n\t\tif (player2Choice == _choice) {\n\t\t    winner = player2;\n\t\t\taddress(player2).transfer(address(this).balance);\n\t\t}\n\n\t\telse {\n\t\t    winner = player1;\n\t\t\taddress(player1).transfer(address(this).balance);\n\t\t}\n\t\t\n\t\t// Reset all state variables before new game\n\t\tplayer1 = address(0);\n\t\tplayer2 = address(0);\n\t\texpiration = 0;\n\t\tpot = 0;\n\t\t\n\t}\n\n\t// player 1 can cancel the bet before player 2 calls takeBet\n\tfunction cancel() public {\n\t\tif(msg.sender != player1 || player2 != address(0)) {\n\t\t\trevert(\"Only Player 1 can call cancel function or Player 2 has already entered bet\");\n\t\t}\n\t\t\n\t\t// give player 1 his money back\n\t\taddress(msg.sender).transfer(address(this).balance);\n\t}\n\n\t// player 2 can call timeout on player 1 if player 1 refuses to call reveal()\n\tfunction claimTimeout() public {\n\t\tif(now < expiration) {\n\t\t\trevert(\"Cannot claim until after expiration period\");\n\t\t}\n\n\t\taddress(player2).transfer(address(this).balance);\n\t}\n\n}",
  "sourcePath": "/Users/aidenchia/Desktop/50.037_Ex11/contracts/CoinFlip.sol",
  "compiler": {
    "name": "solc",
    "version": "0.5.16+commit.9c3226ce.Emscripten.clang"
  },
  "schemaVersion": "3.0.23",
  "updatedAt": "2020-04-19T07:16:07.508Z",
  "networkType": "ethereum",
  "devdoc": {
    "methods": {}
  },
  "userdoc": {
    "methods": {}
  }
}